:020000020000FC
:10E00000314000043C4000023D400200B012E8E014
:10E01000B0129CE0B01208E10F43103CB2401F0365
:10E020007201B24090017401824300023E4046E812
:10E0300003431D433E533D63FD2F1F533F90140088
:10E04000133482930002EA23B240E7037201B24024
:10E05000F4017401925300023E4046E803431D431D
:10E060003E533D63FD2FE93F3041E2D22200E2D230
:10E070002600C2432E00F2C080002A00F2D08000A9
:10E080002F00F2D080002900F2D080002C00F2C0D6
:10E0900080002B00F2D080002D003041B240805A29
:10E0A0002001D242FF105700D242FE105600B0129B
:10E0B0006AE0B012FAE032D20C4330410D120F1276
:10E0C0000E12B01218E0F2C080002B003E413F411A
:10E0D0003D4100130A1221830A4C814A00000D4180
:10E0E0005C43B01210E1F93F0F4C0F5D033CCC4391
:10E0F00000001C530C9FFB233041B240E000640140
:10E10000B24010026001304130400CE13040D4E0B8
:02E1100030419C
:02FFE600BCE07D
:02FFFE0000E021
:040000030000E00019
:00000001FF
