:020000020000FC
:10C000000100314000043C4000023D4000C03E4081
:10C010000200B012F4C0B012B4C0B012F0C01B3CA9
:10C020001F4200020F5F0E4F0F5F0F5F0F5E825FB8
:10C030007401B290DF037401042CB2900A00740101
:10C04000062C1F4200023FE31F53824F00023F4075
:10C05000091A3F53FE2FF2B22000E22B3041F2D0FA
:10C0600040002200F2D040002600F2C22200F2D2AC
:10C070002700F2D22100F2D22400F2C22300F2D231
:10C08000250030410F120E12F2B223000428B01224
:10C090001EC0F2C223003E413F410013B240E803FC
:10C0A000720192437401B240E0006401B240100298
:10C0B00060013041B240805A2001B0125EC0B0121F
:10C0C0009CC032D018000C4330410A1221830A4C24
:10C0D000814A00000D415C43B012FCC0F93F0F4C97
:10C0E000043CFF4D00001F533E530E93FA23304192
:0EC0F0003040F8C03040DEC03040CAC03041A1
:02FFE40084C0D7
:02FFFE0002C03F
:040000030000C00237
:00000001FF
