:020000020000FC
:10C00000314000043C4000023D400200B012ECC050
:10C01000B0129CC0B0120CC10F43103CB2401F03C1
:10C020007201B24090017401824300023E4046E832
:10C0300003431D433E533D63FD2F1F533F901400A8
:10C04000133482930002EA23B240E7037201B24044
:10C05000F4017401925300023E4046E803431D433D
:10C060003E533D63FD2FE93F3041E2D22200E2D250
:10C070002600C2432E00F2C080002A00F2D08000C9
:10C080002F00F2D080002900F2D080002C00F2C0F6
:10C0900080002B00F2D080002D003041B240805A49
:10C0A0002001D242FF105700D242FE105600B012BB
:10C0B0006AC0B012FEC032D232D098000C43304178
:10C0C0000D120F120E12B01218C0F2C080002B0019
:10C0D0003E413F413D4100130A1221830A4C814AEF
:10C0E00000000D415C43B01214C1F93F0F4C0F5DCD
:10C0F000033CCC4300001C530C9FFB233041B24057
:10C10000E0006401B240100260013041304010C1D3
:06C110003040D8C03041B0
:02FFE600C0C099
:02FFFE0000C041
:040000030000C00039
:00000001FF
